:10000000800AC0F9A4B0999282F8809075A000751A
:10001000B0003101900002E475100A75130A7516DC
:100020000A75191478147F28E510311DD2B0C2B1B9
:10003000E51193F5A011F875B000D2B1C2B0E51288
:1000400093F5A011F875B000800280DCE513311D36
:10005000D2B2C2B3E51193F5A011F875B000D2B3D6
:10006000C2B2E51293F5A011F875B000E516311D86
:10007000D2B4C2B5E51193F5A011F875B000D2B5B0
:10008000C2B4E51293F5A011F875B000E519311D61
:10009000D2B6C2B7E51193F5A011F875B000D2B78A
:1000A000C2B6E51293F5A011F875B000D89C78148B
:1000B000BA010375100AD5101075101475130B755D
:1000C000160B75190B7A003108D5131075100A75C7
:1000D000131475160B75190B7A01310FD51610759F
:1000E000100A75130A75161475190B7A003116D596
:1000F0001900DF02010C01287C057DFFDDFEDCFA22
:1001000022759054758002227590A1758002227527
:1001100090097580052275904A7580082275F00A4D
:0701200084F51185F01222A5
:00000001FF
